:020000040000FA
:0400000000EF08F015
:020004000000FA
:0400080004EF08F009
:0400180006EF08F0F7
:0410000007EF08F0FE
:081008004CEF08F01000056A2E
:1010100010EC08F01BEC08F027EC08F00AEF08F0E1
:101020000F0EC16E000E926EFF0E936E000E956E47
:10103000900EF26E12008150F00B06E0006E003A46
:1010400000501008016E120080921BEF08F0005053
:10105000066E808232EC08F00150066E809232EC0F
:1010600008F01200080E106ED10E116E200E126ED6
:101070003FEC08F0060602E034EF08F012001050D2
:10108000D56E1150D76E1250D66ED58EF2A446EFA3
:1010900008F0F294D59E12000550010F0700056E6E
:0810A00005C083FFF29210006D
:020000040030CA
:0100000024DB
:010001000EF0
:010002003FBE
:010003001EDE
:010005008179
:010006008178
:010008000FE8
:01000900C036
:01000A000FE6
:01000B00E014
:01000C000FE4
:01000D0040B2
:00000001FF
