:020000040000FA
:0400000000EF08F015
:020004000000FA
:1010000008EC08F00FEC08F01BEC08F002EF08F019
:101010000F0EC16E000E926EFF0E936E1200815085
:10102000F00B06E0006E003A00501008016E12004E
:1010300080920FEF08F00050066E808226EC08F0D8
:101040000150066E809226EC08F01200080E106E19
:10105000D10E116E200E126E33EC08F0060602E07F
:1010600028EF08F012001050D56E1150D76E1250B4
:10107000D66ED58EF2A43AEF08F0F294D59E120007
:020000040030CA
:0100000024DB
:010001000EF0
:010002003FBE
:010003001EDE
:010005008179
:010006008178
:010008000FE8
:01000900C036
:01000A000FE6
:01000B00E014
:01000C000FE4
:01000D0040B2
:00000001FF
