:020000040000FA
:06000000DAEF07F0120028
:0600080004EF08F01200F5
:060018000CEF08F01200DD
:0E0020000100E00F0000BB0000000200000025
:02002E00F00ED2
:100030008B169416896A926A0001636B6769686916
:100040006969666B010E6A6F1200D9CFE6FFE1CFD6
:10005000D9FFE652000163511FE1040108BF1BD024
:10006000400EE66E700EE66E030EE66E07EC06F0CE
:10007000E552E552E5520001010E636FDF6A400E62
:10008000DF5C09E2DF50EA6AB00FE96E030EEA2294
:10009000EF6ADF2AF4D796D103017051080A01E113
:1000A00080D10F0A01E123D1010A01E118D1030A2D
:1000B00001E1B4D0010A6AE0070A5DE0010A01E04B
:1000C00081D10301020EB06F03013A0EB16F03013B
:1000D000010EB26F0301010EB36F0301B46B100E7A
:1000E000B56FB66BB76B0301B86B700EB96FBA6BB7
:1000F000BB6B0301030EBC6F0301BD6BBE6B300E07
:10010000BF6FC06B03010E0EC16FC26BC36BC46BBC
:100110000301010EC56F0301C66BC76B200EC86FCC
:10012000C96B0301080ECA6FCB6BCC6BCD6B03019F
:10013000CE690301020ECE6F0301CF6BD06BF00EC0
:10014000D16FD26B0301D36B010ED46FD56BD66B1D
:100150000301D76904010CBF0DD0400EE66EB00E4E
:10016000E66E030EE66ED7EC05F0E552E552E55279
:100170000001636B27D10001010E6A6F0301715109
:1001800002E100016A6B0001636B1CD1400E0001AB
:10019000646F656B0001000E645D020E65591FE21D
:1001A000040064C000F065C001F0026A060E1F0B77
:1001B00000C0F6FF01C0F7FF02C0F8FF06E0D890CC
:1001C000F636F736F836E806FAE1940EA66E9DD9B3
:1001D00061EC06F00001642B000E6523DBD7DF6ABB
:1001E000DF50A96EA868040EA66E61EC06F08DD9EA
:1001F000DF50DF2A006E016A026AFF0E005C000E0B
:100200000158000E0258ECE3F66AF76A200EF86E09
:10021000940EA66E7AD90001636BD4D0300E030120
:10022000735D07E100016A5101E132D90001636B9E
:10023000C9D0F00E0301735D04E14DD90001636B79
:10024000C1D0E8680001671905E1E868681902E1B2
:10025000E868691906E171C367F072C368F073C397
:1002600069F0670EE96E000EEA6EEE500301711937
:1002700008E1EE500301721904E1EE500301731915
:1002800000E12AE1DF6A03017551DF5C25E23A0EE5
:100290000301D8807555DF24EA6A760FE96E030EF4
:1002A000EA22EF50E66E00016651EA6A6B0FE96ED2
:1002B000000EEA22E552E750EF6E0001662B0001C6
:1002C000672B000E6823000E6923200E0001665D77
:1002D00001E17DD8DF2AD7D70001636B73D077D8CF
:1002E00000016769686969690001636B6BD003018C
:1002F000070EB06F71C3B1F372C3B2F373C3B3F33C
:1003000074C3B4F375C3B5F371C3F6FF72C3F7FFDB
:1003100073C3F8FFDF6A03017551DF5C31E2F00E51
:100320000301735D13E1DF5003017125A96EA66A15
:10033000A6803A0E0301D8807555DF24EA6AB60F0D
:10034000E96E030EEA22A8CFEFFF18D00900300EA5
:10035000F85C08E1050EF65C01E1F568080EF65C54
:1003600001E1F5683A0E0301D8807555DF24EA6A89
:10037000B60FE96E030EEA22F5CFEFFFDF2ACBD7E7
:1003800004010CBF0DD0400EE66EB00EE66E030EFB
:10039000E66ED7EC05F0E552E552E5520001636BDD
:1003A00011D06D926D6ADF6AFF0EDF5C09E2E868CA
:1003B000E85004E0E80600D000D0FAD7DF2AF4D7EE
:1003C000FF0000D0E552E552E7CFD9FF120003014C
:1003D000F16B66C000F0016A026A00500001675DBF
:1003E000F66E015000016859F76E0250000169591C
:1003F000F86E1F0EF6140301F26FE00EF6160301FD
:10040000F06B200E0301F05D1FE20301F25115E1D4
:10041000000166510FE00301F151EA6A6B0FE96ECA
:10042000000EEA22EF50F56E0D000301F12B0001E2
:10043000660702D0F5680D0004D0F5680D000301D1
:10044000F2070301F02BDDD70A00A40EA66E5DD8DB
:100450000301F06B000166510301F05D18E2030136
:10046000F1510301F025EA6A6B0FE96E000EEA22F2
:10047000EF50E66E0301F051EA6A6B0FE96E000E71
:10048000EA22E552E750EF6E0301F02BE3D71200AA
:1004900071C3F6FF72C3F7FF73C3F8FF0301F36B79
:1004A000030175510301F35D15E23A0E0301D88093
:1004B00075550301F325EA6A760FE96E030EEA2209
:1004C000EF50F56E0C00C40EA66E1FD80900030194
:1004D000F32BE6D712000301F46B7551F45D14E2BF
:1004E0007151F425A96E3A0ED8807555F425EA6A43
:1004F000760FE96E030EEA22EF50A86E040EA66E88
:1005000004D80301F42BE9D71200F29E550EA76E12
:0E051000AA0EA76EA682A6B2FED7A69412006F
:02051E007AD988
:10052000E6526C5032E16896040100513C0BE842FF
:10053000E8420D0828E1180E021923E1040E031900
:1005400020E1100E026F040E036FDF6ADF50006EB1
:10055000016A080E005C000E015813E2DF50EA6ADF
:10056000180FE96E040EEA22EF50E66EDF50EA6AD9
:10057000100FE96E040EEA22E552E750EF6EDF2A13
:10058000E5D70ED80AD03FD808D0040E6C5C03E142
:10059000689650D802D0000E01D0010EE5523FD12E
:1005A00039D9E652040104BF046B0001B36BAB6B95
:1005B000AC6BB16BB26B1BEC04F0DF6ADF50006E0A
:1005C000016A010E005C000E01581AE20001AC51F4
:1005D00017E1F76ADF34FE0BF736F66E900EF6265B
:1005E0000E0EF7220900F5CF00F00800F5CF01F05C
:1005F00004D001C0FAFF0050F96EFBDFDF2ADED71E
:10060000B4D8E5520CD1020E0001AB5D0EE181D8E9
:100610000401180E026F040E036F080E016F00BD77
:1006200002D0C80E05D0880E03D0D8D8E4D88C0EDE
:10063000006F1200040E0001B45D09E112C46EFFE8
:100640006E50000802E2050E01D0030EB46F0001E7
:10065000AB0510E111D8020E0001B35D03E1040106
:10066000840E06D0040104BD02D0C80E01D0880E4D
:10067000046F1200EEEF03F0CDD8020EE126000168
:10068000080EB15D000EB2590DE2B1C0DEFFB2C07E
:10069000DDFFB35102E1010E03D0B30506E1020E06
:1006A000B36F03D0080EDE6EDD6A0401049304917B
:1006B000010EDB500413DFCF05F4000EDB50000108
:1006C000B15F010EDB50B25B180EAF6F040EB06F5E
:1006D0000001B5A30CD097D815E0ADC0F6FFAEC0B1
:1006E000F7FF0800F5507FD8F6E2DB06F4D78BD889
:1006F00009E0ADC0E9FFAEC0EAFFEF5074D8F7E201
:10070000DB06F5D7020EE15C02E2E16AE552E16E3A
:1007100086D080D8020EE126030E04010015E76E94
:10072000010EE7CFDBFF01C4DFFFDE500001B12780
:10073000DD50B223180EAD6F040EAE6F64D80EE01C
:10074000ADC0E9FFAEC0EAFFEF50AFC0E9FFB0C0F7
:10075000EAFFEF6E68D8F2E2DB06F0D7020EE15C4A
:1007600002E2E16AE552E16E5AD06D980001AC51A7
:1007700005E141D8840E006F04011DD0040110AFC3
:100780001CD00001B1510401165D0001B2510401F9
:10079000175904E216C4B1F017C4B2F06DDF0001BE
:1007A000010EAB6F28D8800E006F0401180E066F83
:1007B000040E076FC80E046F12000001020EAB6F2B
:1007C0000401056BC80E046F0401080E016F180EBA
:1007D000026F040E036FC80E006F12000001AB6BB6
:1007E0000401046B1200AFC0E9FFB0C0EAFFEF6E76
:1007F000000113EF04F00401080E016F100E026FE8
:10080000040E036F1200D9CFE9FFDACFEAFFEE50F2
:10081000ED101200D9CFE6FFE1CFD9FF1200E5526B
:10082000E7CFD9FF1200AF2B000EB023AD2BAE23C4
:06083000DF06010E1200BC
:0A08360004011051600BE842E84293
:10084000E842E842E842000901E012001151070ABB
:1008500040E00B0A3EE0070A33E0010A23E00B0AFE
:100860001FE0020A1DE0030A19E0080A10E0010A6D
:100870000CE00F0A08E0030A01E0120012D900019F
:10088000040EB46F12006AEF04F0A1EF04F009D96E
:100890000001B60EAD6F000EAE6F0CD0BCEF04F0D1
:1008A000EEEF04F002D90001AD6FAE6BB70EAD27CD
:1008B000000EAE230001B5930001010EB16F1200CE
:1008C000F4D8EA6AB70FE96E000EEA2212C4EFFF0D
:1008D00012001200800E0401105D32E11351030A70
:1008E0001FE0010A0AE0030A29E1DBD80001D00E6B
:1008F000AD6F0D0EAE6F120E1ED0B2D8860EF6265C
:100900000E0EC0D8020E0001F76AAD25F66EAE518C
:10091000F7220900F5CFB1F00A00F5CFB2F00ED002
:100920009FD88A0EF6260E0EADD8ADC0F6FFAEC02B
:10093000F7FF0800F5500001B16FB26B0001B583FD
:100940001200AFD80F0EE66E710EE66E0F0EA2D833
:10095000010EE66EB70EE66E000E9CD812C4B6F01D
:100960000401125104E10001050EB46F12000001F0
:10097000060EB46FC2EF05F00401186B196B040189
:1009800010511F0B020A0FE0030A0BE0010A18E1E5
:1009900088D8040118810001B5A112D00401188380
:1009A0000FD07FD80DD050D801E0010E62D8AFC073
:1009B000E9FFEA6EEF50040B03E00401010E186F2B
:1009C0000001AC050AE10001180EAD6F040EAE6F18
:1009D0000001B5930001020EB16F1200040112056F
:1009E0000EE110511F0B00090AE15BD8030E040150
:1009F000115D03E10001B58102D00001B591040150
:100A0000125121E110511F0B02081DE114510F0B6F
:100A1000000919E019D801E0010E2BD8030E0401DA
:100A2000115D02E1840E03D014AF07D0400EAFC0B9
:100A3000E9FFB0C0EAFFEF6E1200880EAFC0E9FF19
:100A4000B0C0EAFFEF6E120030D80F0B080DF35064
:100A5000016A000F006E040E01221451800B120077
:100A600020D804011251F66EF76AD890F636F736A0
:100A70001200040DF35000010024AF6F000E01209E
:100A8000B06F1200F7220900F5CFADF00A00F5CFE4
:100A9000AEF01200E66ED3EC06F0E552E552E552F8
:100AA00012000001010EAC6F1200FBDF04011451B3
:020AB000120032
:0E0AB200040110511F0B010801E01200145145
:100AC00001E01200060E115D24E11351230A1FE01C
:100AD000010A0DE0030A1BE1DBD80001B60505E1C0
:100AE0000001F40EAD6F0D0EAE6F090E0DD0D0D813
:100AF0000001B60505E10001690EAD6F0E0EAE6F87
:100B00000001B60504E11D0E0001B16FB26B0001DA
:100B1000B58304011051600BE842E842E842E84224
:100B2000E842010801E0120011510B0A25E0080A11
:100B300017E0090A11E0080A09E00B0A05E0080AB3
:100B400001E01200C0EF05F0C1EF05F0A1D80001EF
:100B5000B80EAD6F000E09D09BD813C4B8F01200C8
:100B600097D80001B90EAD6F000EAE6F0001B593BE
:100B70000001010EB16F12008BD812C4B9F012003F
:100B8000120012000001BA6B1E0E716E0401400EBD
:100B9000096F200E0A6F040E0B6F880E086F040198
:100BA000600E0E6F040E0F6F400E0C6F1200D9CF47
:100BB000E6FFE1CFD9FFE652FC0EDB50400805E22C
:100BC000400EF36EFC0EF3CFDBFFDF6AFC0EDB5052
:100BD000DF5C0FE2DF5050D8EF50E66EDF50EA6A7C
:100BE000600FE96E040EEA22E552E750EF6EDF2A4D
:100BF000EDD7FC0EDBCF0DF4400E04010C170C7D7D
:100C0000880E0C13E552E552E7CFD9FF1200D9CF79
:100C1000E6FFE1CFD9FF0001BA6B040108BF26D07F
:100C2000FC0EDBCF00F00951D880005403E2FC0E2B
:100C300009C4DBFF0001BA6BFC0EDB50BA5D0FE2AA
:100C4000BA51EA6A200FE96E040EEA22EF50E66E0E
:100C5000BA5112D8E552E750EF6EBA2BEDD7040126
:100C6000400E096F0817087D880E08130001BA515D
:100C7000E552E7CFD9FF1200E76EFD0EDBCFE9FFAB
:100C8000FE0EDBCFEAFFE750E926000EEA22120053
:080C90000001020EAC6F12001E
:080C98006DA60CD80001B405A3
:100CA00008E16DBA06D0686A696A69806988020ECF
:100CB000B46F12006D6A696A6D860001010EB46F2F
:100CC00012000001B45101E1120068B425D86DB2E0
:100CD000120068B038D868B817D868BA24D8030E9C
:100CE0000001B45D01E212000301FF6B040EFF5D21
:100CF0000AE268A608D08FEC02F0000901E16896CC
:100D00000301FF2BF3D71200698468986D82A19AC2
:100D1000A08A0300A09A12006D92699468A402D080
:100D20006894FCD7120070A00CD0800E0401005D06
:100D300007E1840E0401045D03E104018C0E006FE1
:100D40007090689A12006A6A686A9F0E6B6E7B0EDA
:100D5000696E6E6A0F0EE66E710EE66E0F0EE66E2F
:100D600022D8E552E552E552160E706E68A605D0FF
:100D7000689600D000D00000F9D76D98EEEC03F033
:100D80000401080E016F0401100E026F040E036FC0
:100D900004018C0E006F0001B5910001B66B0001DB
:100DA000030EB46F1200D9CFE6FFE1CFD9FFFD0EDD
:100DB000DBCFE9FFFE0EDBCFEAFFFC0EDB5004E0E9
:100DC000EE6AFC0EDB06F9D7E552E7CFD9FF120039
:100DD0001201000200000008D8043C0002000102D9
:100DE000000109022900010100C0320904000002CB
:100DF00003000000092111010001221D00070581E7
:100E00000340000107050103400001040309043405
:100E1000034D006900630072006F006300680069A1
:100E2000007000200054006500630068006E006FD1
:100E3000006C006F0067007900200049006E0063BD
:100E4000002E0026034800490044002000550053AE
:100E5000004200200042006F006F0074006C006FC1
:100E60000061006400650072000600FF0901A10135
:100E700019012940150026FF0075089540810019C9
:100E80000129409100C0E20DE20D0B0E0F0E430E42
:020E9000B20AA4
:0E0E9200200EF66E000EF76E000EF86E0301D5
:100EA0000900F550FA6F0900F550FB6F03E1FA678E
:100EB00001D03DD00900F550F56F0900F550F66FEF
:100EC0000900F550F76F09000900F550E96E0900B7
:100ED000F550EA6E090009000900F550F86F0900A5
:100EE000F550F96F09000900F6CFFCF3F7CFFDF3D9
:100EF000F8CFFEF3F5C3F6FFF6C3F7FFF7C3F8FF2D
:100F00000301F85302E1F95307E00900F550EE6ED2
:100F1000F807F8E2F907F9D7FCC3F6FFFDC3F7FFBE
:100F2000FEC3F8FF0301FA07000EFB5BBFD71200F8
:100F30000F0EC16E81AA04D0070EC16E00EF08F03B
:100F40000ED8040016D819D8060E0001B45D05E1CC
:100F50006D50020B02E125EC00F0F3D71200140EE5
:100F60006F6E0001B46B0001B56B0001B66B17EF3B
:100F700000F04CEC06F061EF06F00001BB51BC1133
:100F800004E1100EBB6F270EBC6FBB07000EBC5BED
:100F9000060E0001B45D02E28B8008D00001BB5157
:100FA000BC1107E18B708B50010B02E08B92120099
:040FB0008B8212001E
:0C0FB40013EE00F023EE00F0F86A049C3D
:100FC00049EC07F0EFEC07F098EC07F0FBD71200C4
:0E0FD00000EE00F00F0EEE6AEA62FDD712008E
:020FDE001200FF
:020FE00000000F
:020000040030CA
:0100000024DB
:010001000EF0
:010002003FBE
:010003001EDE
:010005008179
:010006008178
:010008000FE8
:01000900C036
:01000A000FE6
:01000B00E014
:01000C000FE4
:01000D0040B2
:00000001FF
